{
  "contractName": "RonaldoCoinCapped",
  "abi": [
    {
      "inputs": [
        {
          "internalType": "string",
          "name": "tokenName",
          "type": "string"
        },
        {
          "internalType": "string",
          "name": "tokenSymbol",
          "type": "string"
        }
      ],
      "stateMutability": "nonpayable",
      "type": "constructor"
    },
    {
      "anonymous": false,
      "inputs": [
        {
          "indexed": true,
          "internalType": "address",
          "name": "_owner",
          "type": "address"
        },
        {
          "indexed": true,
          "internalType": "address",
          "name": "_spender",
          "type": "address"
        },
        {
          "indexed": false,
          "internalType": "uint256",
          "name": "_value",
          "type": "uint256"
        }
      ],
      "name": "Approval",
      "type": "event"
    },
    {
      "anonymous": false,
      "inputs": [
        {
          "indexed": true,
          "internalType": "address",
          "name": "_from",
          "type": "address"
        },
        {
          "indexed": true,
          "internalType": "address",
          "name": "_to",
          "type": "address"
        },
        {
          "indexed": false,
          "internalType": "uint256",
          "name": "_value",
          "type": "uint256"
        }
      ],
      "name": "Transfer",
      "type": "event"
    },
    {
      "inputs": [
        {
          "internalType": "address",
          "name": "_owner",
          "type": "address"
        },
        {
          "internalType": "address",
          "name": "_spender",
          "type": "address"
        }
      ],
      "name": "allowance",
      "outputs": [
        {
          "internalType": "uint256",
          "name": "remaining",
          "type": "uint256"
        }
      ],
      "stateMutability": "view",
      "type": "function",
      "constant": true
    },
    {
      "inputs": [
        {
          "internalType": "address",
          "name": "_spender",
          "type": "address"
        },
        {
          "internalType": "uint256",
          "name": "_value",
          "type": "uint256"
        }
      ],
      "name": "approve",
      "outputs": [
        {
          "internalType": "bool",
          "name": "success",
          "type": "bool"
        }
      ],
      "stateMutability": "nonpayable",
      "type": "function"
    },
    {
      "inputs": [
        {
          "internalType": "address",
          "name": "_owner",
          "type": "address"
        }
      ],
      "name": "balanceOf",
      "outputs": [
        {
          "internalType": "uint256",
          "name": "balance",
          "type": "uint256"
        }
      ],
      "stateMutability": "view",
      "type": "function",
      "constant": true
    },
    {
      "inputs": [],
      "name": "decimals",
      "outputs": [
        {
          "internalType": "uint8",
          "name": "",
          "type": "uint8"
        }
      ],
      "stateMutability": "view",
      "type": "function",
      "constant": true
    },
    {
      "inputs": [],
      "name": "name",
      "outputs": [
        {
          "internalType": "string",
          "name": "",
          "type": "string"
        }
      ],
      "stateMutability": "view",
      "type": "function",
      "constant": true
    },
    {
      "inputs": [],
      "name": "symbol",
      "outputs": [
        {
          "internalType": "string",
          "name": "",
          "type": "string"
        }
      ],
      "stateMutability": "view",
      "type": "function",
      "constant": true
    },
    {
      "inputs": [],
      "name": "totalSupply",
      "outputs": [
        {
          "internalType": "uint256",
          "name": "",
          "type": "uint256"
        }
      ],
      "stateMutability": "view",
      "type": "function",
      "constant": true
    },
    {
      "inputs": [
        {
          "internalType": "address",
          "name": "_to",
          "type": "address"
        },
        {
          "internalType": "uint256",
          "name": "_value",
          "type": "uint256"
        }
      ],
      "name": "transfer",
      "outputs": [
        {
          "internalType": "bool",
          "name": "success",
          "type": "bool"
        }
      ],
      "stateMutability": "nonpayable",
      "type": "function"
    },
    {
      "inputs": [
        {
          "internalType": "address",
          "name": "_from",
          "type": "address"
        },
        {
          "internalType": "address",
          "name": "_to",
          "type": "address"
        },
        {
          "internalType": "uint256",
          "name": "_value",
          "type": "uint256"
        }
      ],
      "name": "transferFrom",
      "outputs": [
        {
          "internalType": "bool",
          "name": "success",
          "type": "bool"
        }
      ],
      "stateMutability": "nonpayable",
      "type": "function"
    },
    {
      "stateMutability": "payable",
      "type": "receive",
      "payable": true
    },
    {
      "inputs": [],
      "name": "getTokenLeft",
      "outputs": [
        {
          "internalType": "uint256",
          "name": "",
          "type": "uint256"
        }
      ],
      "stateMutability": "view",
      "type": "function",
      "constant": true
    }
  ],
  "bytecode": "0x60806040523480156200001157600080fd5b5060405162001db738038062001db7833981810160405281019062000037919062000466565b818181600090805190602001906200005192919062000219565b5080600190805190602001906200006a92919062000219565b5060006003819055506012600260006101000a81548160ff021916908360ff160217905550505033600660006101000a81548173ffffffffffffffffffffffffffffffffffffffff021916908373ffffffffffffffffffffffffffffffffffffffff1602179055506000601490506200011a33620000ed6200012360201b60201c565b60ff16600a620000fe919062000678565b8360ff166200010e9190620006c9565b6200013a60201b60201c565b5050506200081a565b6000600260009054906101000a900460ff16905090565b80600360008282546200014e91906200072a565b9250508190555080600460008473ffffffffffffffffffffffffffffffffffffffff1673ffffffffffffffffffffffffffffffffffffffff1681526020019081526020016000206000828254620001a691906200072a565b925050819055508173ffffffffffffffffffffffffffffffffffffffff16600073ffffffffffffffffffffffffffffffffffffffff167fddf252ad1be2c89b69c2b068fc378daa952ba7f163c4a11628f55a4df523b3ef836040516200020d919062000798565b60405180910390a35050565b8280546200022790620007e4565b90600052602060002090601f0160209004810192826200024b576000855562000297565b82601f106200026657805160ff191683800117855562000297565b8280016001018555821562000297579182015b828111156200029657825182559160200191906001019062000279565b5b509050620002a69190620002aa565b5090565b5b80821115620002c5576000816000905550600101620002ab565b5090565b6000604051905090565b600080fd5b600080fd5b600080fd5b600080fd5b6000601f19601f8301169050919050565b7f4e487b7100000000000000000000000000000000000000000000000000000000600052604160045260246000fd5b6200033282620002e7565b810181811067ffffffffffffffff82111715620003545762000353620002f8565b5b80604052505050565b600062000369620002c9565b905062000377828262000327565b919050565b600067ffffffffffffffff8211156200039a5762000399620002f8565b5b620003a582620002e7565b9050602081019050919050565b60005b83811015620003d2578082015181840152602081019050620003b5565b83811115620003e2576000848401525b50505050565b6000620003ff620003f9846200037c565b6200035d565b9050828152602081018484840111156200041e576200041d620002e2565b5b6200042b848285620003b2565b509392505050565b600082601f8301126200044b576200044a620002dd565b5b81516200045d848260208601620003e8565b91505092915050565b6000806040838503121562000480576200047f620002d3565b5b600083015167ffffffffffffffff811115620004a157620004a0620002d8565b5b620004af8582860162000433565b925050602083015167ffffffffffffffff811115620004d357620004d2620002d8565b5b620004e18582860162000433565b9150509250929050565b7f4e487b7100000000000000000000000000000000000000000000000000000000600052601160045260246000fd5b60008160011c9050919050565b6000808291508390505b60018511156200057957808604811115620005515762000550620004eb565b5b6001851615620005615780820291505b808102905062000571856200051a565b945062000531565b94509492505050565b60008262000594576001905062000667565b81620005a4576000905062000667565b8160018114620005bd5760028114620005c857620005fe565b600191505062000667565b60ff841115620005dd57620005dc620004eb565b5b8360020a915084821115620005f757620005f6620004eb565b5b5062000667565b5060208310610133831016604e8410600b8410161715620006385782820a905083811115620006325762000631620004eb565b5b62000667565b62000647848484600162000527565b92509050818404811115620006615762000660620004eb565b5b81810290505b9392505050565b6000819050919050565b600062000685826200066e565b915062000692836200066e565b9250620006c17fffffffffffffffffffffffffffffffffffffffffffffffffffffffffffffffff848462000582565b905092915050565b6000620006d6826200066e565b9150620006e3836200066e565b9250817fffffffffffffffffffffffffffffffffffffffffffffffffffffffffffffffff04831182151516156200071f576200071e620004eb565b5b828202905092915050565b600062000737826200066e565b915062000744836200066e565b9250827fffffffffffffffffffffffffffffffffffffffffffffffffffffffffffffffff038211156200077c576200077b620004eb565b5b828201905092915050565b62000792816200066e565b82525050565b6000602082019050620007af600083018462000787565b92915050565b7f4e487b7100000000000000000000000000000000000000000000000000000000600052602260045260246000fd5b60006002820490506001821680620007fd57607f821691505b60208210811415620008145762000813620007b5565b5b50919050565b61158d806200082a6000396000f3fe6080604052600436106100955760003560e01c8063313ce56711610059578063313ce5671461039f57806370a08231146103ca57806395d89b4114610407578063a9059cbb14610432578063dd62ed3e1461046f5761029f565b806306fdde03146102a4578063095ea7b3146102cf57806318160ddd1461030c5780631bc77c561461033757806323b872dd146103625761029f565b3661029f57655af3107a40003410156100e3576040517f08c379a00000000000000000000000000000000000000000000000000000000081526004016100da90610beb565b60405180910390fd5b6601c6bf5263400034111561012d576040517f08c379a000000000000000000000000000000000000000000000000000000000815260040161012490610c7d565b60405180910390fd5b600061015a600660009054906101000a900473ffffffffffffffffffffffffffffffffffffffff166104ac565b1161019a576040517f08c379a000000000000000000000000000000000000000000000000000000000815260040161019190610d0f565b60405180910390fd5b60006101a5336104ac565b146101e5576040517f08c379a00000000000000000000000000000000000000000000000000000000081526004016101dc90610da1565b60405180910390fd5b610234600660009054906101000a900473ffffffffffffffffffffffffffffffffffffffff16336102146104f5565b60ff16600a6102239190610f2d565b600161022f9190610f78565b61050c565b600660009054906101000a900473ffffffffffffffffffffffffffffffffffffffff1673ffffffffffffffffffffffffffffffffffffffff166108fc349081150290604051600060405180830381858888f1935050505015801561029c573d6000803e3d6000fd5b50005b600080fd5b3480156102b057600080fd5b506102b96106a4565b6040516102c6919061105a565b60405180910390f35b3480156102db57600080fd5b506102f660048036038101906102f1919061110b565b610736565b6040516103039190611166565b60405180910390f35b34801561031857600080fd5b50610321610828565b60405161032e9190611190565b60405180910390f35b34801561034357600080fd5b5061034c610832565b6040516103599190611190565b60405180910390f35b34801561036e57600080fd5b50610389600480360381019061038491906111ab565b610885565b6040516103969190611166565b60405180910390f35b3480156103ab57600080fd5b506103b46104f5565b6040516103c1919061121a565b60405180910390f35b3480156103d657600080fd5b506103f160048036038101906103ec9190611235565b6104ac565b6040516103fe9190611190565b60405180910390f35b34801561041357600080fd5b5061041c6109ef565b604051610429919061105a565b60405180910390f35b34801561043e57600080fd5b506104596004803603810190610454919061110b565b610a81565b6040516104669190611166565b60405180910390f35b34801561047b57600080fd5b5061049660048036038101906104919190611262565b610b07565b6040516104a39190611190565b60405180910390f35b6000600460008373ffffffffffffffffffffffffffffffffffffffff1673ffffffffffffffffffffffffffffffffffffffff168152602001908152602001600020549050919050565b6000600260009054906101000a900460ff16905090565b80600460008573ffffffffffffffffffffffffffffffffffffffff1673ffffffffffffffffffffffffffffffffffffffff16815260200190815260200160002054101561058e576040517f08c379a000000000000000000000000000000000000000000000000000000000815260040161058590611314565b60405180910390fd5b80600460008573ffffffffffffffffffffffffffffffffffffffff1673ffffffffffffffffffffffffffffffffffffffff16815260200190815260200160002060008282546105dd9190611334565b9250508190555080600460008473ffffffffffffffffffffffffffffffffffffffff1673ffffffffffffffffffffffffffffffffffffffff16815260200190815260200160002060008282546106339190611368565b925050819055508173ffffffffffffffffffffffffffffffffffffffff168373ffffffffffffffffffffffffffffffffffffffff167fddf252ad1be2c89b69c2b068fc378daa952ba7f163c4a11628f55a4df523b3ef836040516106979190611190565b60405180910390a3505050565b6060600080546106b3906113ed565b80601f01602080910402602001604051908101604052809291908181526020018280546106df906113ed565b801561072c5780601f106107015761010080835404028352916020019161072c565b820191906000526020600020905b81548152906001019060200180831161070f57829003601f168201915b5050505050905090565b600081600560003373ffffffffffffffffffffffffffffffffffffffff1673ffffffffffffffffffffffffffffffffffffffff16815260200190815260200160002060008573ffffffffffffffffffffffffffffffffffffffff1673ffffffffffffffffffffffffffffffffffffffff168152602001908152602001600020819055508273ffffffffffffffffffffffffffffffffffffffff163373ffffffffffffffffffffffffffffffffffffffff167f8c5be1e5ebec7d5bd14f71427d1e84f3dd0314c0f7b2291e5b200ac8c7c3b925846040516108169190611190565b60405180910390a36001905092915050565b6000600354905090565b600061083c6104f5565b60ff16600a61084b9190610f2d565b610876600660009054906101000a900473ffffffffffffffffffffffffffffffffffffffff166104ac565b610880919061144e565b905090565b600081600560008673ffffffffffffffffffffffffffffffffffffffff1673ffffffffffffffffffffffffffffffffffffffff16815260200190815260200160002060003373ffffffffffffffffffffffffffffffffffffffff1673ffffffffffffffffffffffffffffffffffffffff168152602001908152602001600020541015610946576040517f08c379a000000000000000000000000000000000000000000000000000000000815260040161093d906114cb565b60405180910390fd5b81600560008673ffffffffffffffffffffffffffffffffffffffff1673ffffffffffffffffffffffffffffffffffffffff16815260200190815260200160002060003373ffffffffffffffffffffffffffffffffffffffff1673ffffffffffffffffffffffffffffffffffffffff16815260200190815260200160002060008282546109d29190611334565b925050819055506109e484848461050c565b600190509392505050565b6060600180546109fe906113ed565b80601f0160208091040260200160405190810160405280929190818152602001828054610a2a906113ed565b8015610a775780601f10610a4c57610100808354040283529160200191610a77565b820191906000526020600020905b815481529060010190602001808311610a5a57829003601f168201915b5050505050905090565b60008073ffffffffffffffffffffffffffffffffffffffff163373ffffffffffffffffffffffffffffffffffffffff161415610af2576040517f08c379a0000000000000000000000000000000000000000000000000000000008152600401610ae990611537565b60405180910390fd5b610afd33848461050c565b6001905092915050565b6000600560008473ffffffffffffffffffffffffffffffffffffffff1673ffffffffffffffffffffffffffffffffffffffff16815260200190815260200160002060008373ffffffffffffffffffffffffffffffffffffffff1673ffffffffffffffffffffffffffffffffffffffff16815260200190815260200160002054905092915050565b600082825260208201905092915050565b7f526f6e616c646f436f696e2773207072696365206973206e6f74206d65740000600082015250565b6000610bd5601e83610b8e565b9150610be082610b9f565b602082019050919050565b60006020820190508181036000830152610c0481610bc8565b9050919050565b7f4e6f206e65656420746f207061792074686174206d756368212120646f6e617460008201527f6520746f206368617269747920696e73746561642e0000000000000000000000602082015250565b6000610c67603583610b8e565b9150610c7282610c0b565b604082019050919050565b60006020820190508181036000830152610c9681610c5a565b9050919050565b7f416c6c20313020526f6e616c646f436f696e20617265206d696e7465642e205960008201527f6f75277265206c6174652e000000000000000000000000000000000000000000602082015250565b6000610cf9602b83610b8e565b9150610d0482610c9d565b604082019050919050565b60006020820190508181036000830152610d2881610cec565b9050919050565b7f596f752063616e206f776e206174206d6178203120526f6e616c646f436f696e60008201527f2c206e6f74206d6f72652e20446f6e2774206265206772656564790000000000602082015250565b6000610d8b603b83610b8e565b9150610d9682610d2f565b604082019050919050565b60006020820190508181036000830152610dba81610d7e565b9050919050565b7f4e487b7100000000000000000000000000000000000000000000000000000000600052601160045260246000fd5b60008160011c9050919050565b6000808291508390505b6001851115610e4757808604811115610e2357610e22610dc1565b5b6001851615610e325780820291505b8081029050610e4085610df0565b9450610e07565b94509492505050565b600082610e605760019050610f1c565b81610e6e5760009050610f1c565b8160018114610e845760028114610e8e57610ebd565b6001915050610f1c565b60ff841115610ea057610e9f610dc1565b5b8360020a915084821115610eb757610eb6610dc1565b5b50610f1c565b5060208310610133831016604e8410600b8410161715610ef25782820a905083811115610eed57610eec610dc1565b5b610f1c565b610eff8484846001610dfd565b92509050818404811115610f1657610f15610dc1565b5b81810290505b9392505050565b6000819050919050565b6000610f3882610f23565b9150610f4383610f23565b9250610f707fffffffffffffffffffffffffffffffffffffffffffffffffffffffffffffffff8484610e50565b905092915050565b6000610f8382610f23565b9150610f8e83610f23565b9250817fffffffffffffffffffffffffffffffffffffffffffffffffffffffffffffffff0483118215151615610fc757610fc6610dc1565b5b828202905092915050565b600081519050919050565b60005b83811015610ffb578082015181840152602081019050610fe0565b8381111561100a576000848401525b50505050565b6000601f19601f8301169050919050565b600061102c82610fd2565b6110368185610b8e565b9350611046818560208601610fdd565b61104f81611010565b840191505092915050565b600060208201905081810360008301526110748184611021565b905092915050565b600080fd5b600073ffffffffffffffffffffffffffffffffffffffff82169050919050565b60006110ac82611081565b9050919050565b6110bc816110a1565b81146110c757600080fd5b50565b6000813590506110d9816110b3565b92915050565b6110e881610f23565b81146110f357600080fd5b50565b600081359050611105816110df565b92915050565b600080604083850312156111225761112161107c565b5b6000611130858286016110ca565b9250506020611141858286016110f6565b9150509250929050565b60008115159050919050565b6111608161114b565b82525050565b600060208201905061117b6000830184611157565b92915050565b61118a81610f23565b82525050565b60006020820190506111a56000830184611181565b92915050565b6000806000606084860312156111c4576111c361107c565b5b60006111d2868287016110ca565b93505060206111e3868287016110ca565b92505060406111f4868287016110f6565b9150509250925092565b600060ff82169050919050565b611214816111fe565b82525050565b600060208201905061122f600083018461120b565b92915050565b60006020828403121561124b5761124a61107c565b5b6000611259848285016110ca565b91505092915050565b600080604083850312156112795761127861107c565b5b6000611287858286016110ca565b9250506020611298858286016110ca565b9150509250929050565b7f73656e64657220646f6e27742068617665206164657175617465207265736f7560008201527f7263657320746f207472616e7366657200000000000000000000000000000000602082015250565b60006112fe603083610b8e565b9150611309826112a2565b604082019050919050565b6000602082019050818103600083015261132d816112f1565b9050919050565b600061133f82610f23565b915061134a83610f23565b92508282101561135d5761135c610dc1565b5b828203905092915050565b600061137382610f23565b915061137e83610f23565b9250827fffffffffffffffffffffffffffffffffffffffffffffffffffffffffffffffff038211156113b3576113b2610dc1565b5b828201905092915050565b7f4e487b7100000000000000000000000000000000000000000000000000000000600052602260045260246000fd5b6000600282049050600182168061140557607f821691505b60208210811415611419576114186113be565b5b50919050565b7f4e487b7100000000000000000000000000000000000000000000000000000000600052601260045260246000fd5b600061145982610f23565b915061146483610f23565b9250826114745761147361141f565b5b828204905092915050565b7f6e6f7420656e6f75676820616c6c6f77616e6365000000000000000000000000600082015250565b60006114b5601483610b8e565b91506114c08261147f565b602082019050919050565b600060208201905081810360008301526114e4816114a8565b9050919050565b7f7a65726f20616464726573732063616e277420626520612073656e6465720000600082015250565b6000611521601e83610b8e565b915061152c826114eb565b602082019050919050565b6000602082019050818103600083015261155081611514565b905091905056fea2646970667358221220c85c47fc3852c951aaea5c19b9c231adf047abacf0a9d781efa89357c56c307864736f6c634300080c0033",
  "immutableReferences": {},
  "source": "// SPDX-License-Identifier: MIT\npragma solidity ^0.8.12;\n\n/*\nContract for the RonaldoCoin Token\n*/\n\nimport \"./ERC20.sol\";\n\ncontract RonaldoCoinCapped is ERC20 {\n    address tokenOwner;\n\n    constructor(string memory tokenName, string memory tokenSymbol)\n        ERC20(tokenName, tokenSymbol)\n    {\n        tokenOwner = msg.sender;\n        uint8 tokenMinted = 20; // I want to keep the cap to 10. Change it if you want to mint more\n        mintToken(msg.sender, tokenMinted * 10**uint256(decimals()));\n    }\n\n    // get the total token left \n    function getTokenLeft() public view returns (uint256) {\n        return balanceOf(tokenOwner) / 10**uint256(decimals());\n    }\n\n    // this method recieve ether by default when someone sends it.\n    // so it should a fallback function, or it should have a name of receive() with external payable modifiere and without function keyword\n    receive() external payable {\n        require(\n            msg.value >= 0.0001 ether, // price of 1 RonaldoCoin in wei\n            \"RonaldoCoin's price is not met\"\n        );\n        require(\n            msg.value <= 0.0005 ether, // price of 1 RonaldoCoin in wei\n            \"No need to pay that much!! donate to charity instead.\"\n        );\n        require(\n            balanceOf(tokenOwner) > 0,\n            \"All 10 RonaldoCoin are minted. You're late.\"\n        );\n        require(\n            balanceOf(msg.sender) == 0,\n            \"You can own at max 1 RonaldoCoin, not more. Don't be greedy\"\n        );\n\n        makeTransfer(tokenOwner, msg.sender, 1 * 10**uint256(decimals()));\n        // we'll send 1 coin, thich is represented by n * 10**uint256(decimals()) internally. n=1\n\n        // send the ether earned to the token owner\n        payable(tokenOwner).transfer(msg.value);\n    }\n}\n",
  "compiler": {
    "name": "solc",
    "version": "0.8.12+commit.f00d7308.Emscripten.clang"
  },
  "schemaVersion": "3.4.8",
  "updatedAt": "2022-08-16T13:43:51.025Z",
  "networkType": "ethereum",
  "devdoc": {
    "kind": "dev",
    "methods": {},
    "version": 1
  },
  "userdoc": {
    "kind": "user",
    "methods": {},
    "version": 1
  }
}