{
  "contractName": "RonaldoCoinCapped",
  "abi": [
    {
      "inputs": [
        {
          "internalType": "string",
          "name": "tokenName",
          "type": "string"
        },
        {
          "internalType": "string",
          "name": "tokenSymbol",
          "type": "string"
        }
      ],
      "stateMutability": "nonpayable",
      "type": "constructor"
    },
    {
      "anonymous": false,
      "inputs": [
        {
          "indexed": true,
          "internalType": "address",
          "name": "_owner",
          "type": "address"
        },
        {
          "indexed": true,
          "internalType": "address",
          "name": "_spender",
          "type": "address"
        },
        {
          "indexed": false,
          "internalType": "uint256",
          "name": "_value",
          "type": "uint256"
        }
      ],
      "name": "Approval",
      "type": "event"
    },
    {
      "anonymous": false,
      "inputs": [
        {
          "indexed": true,
          "internalType": "address",
          "name": "_from",
          "type": "address"
        },
        {
          "indexed": true,
          "internalType": "address",
          "name": "_to",
          "type": "address"
        },
        {
          "indexed": false,
          "internalType": "uint256",
          "name": "_value",
          "type": "uint256"
        }
      ],
      "name": "Transfer",
      "type": "event"
    },
    {
      "inputs": [
        {
          "internalType": "address",
          "name": "_owner",
          "type": "address"
        },
        {
          "internalType": "address",
          "name": "_spender",
          "type": "address"
        }
      ],
      "name": "allowance",
      "outputs": [
        {
          "internalType": "uint256",
          "name": "remaining",
          "type": "uint256"
        }
      ],
      "stateMutability": "view",
      "type": "function",
      "constant": true
    },
    {
      "inputs": [
        {
          "internalType": "address",
          "name": "_spender",
          "type": "address"
        },
        {
          "internalType": "uint256",
          "name": "_value",
          "type": "uint256"
        }
      ],
      "name": "approve",
      "outputs": [
        {
          "internalType": "bool",
          "name": "success",
          "type": "bool"
        }
      ],
      "stateMutability": "nonpayable",
      "type": "function"
    },
    {
      "inputs": [
        {
          "internalType": "address",
          "name": "_owner",
          "type": "address"
        }
      ],
      "name": "balanceOf",
      "outputs": [
        {
          "internalType": "uint256",
          "name": "balance",
          "type": "uint256"
        }
      ],
      "stateMutability": "view",
      "type": "function",
      "constant": true
    },
    {
      "inputs": [],
      "name": "decimals",
      "outputs": [
        {
          "internalType": "uint8",
          "name": "",
          "type": "uint8"
        }
      ],
      "stateMutability": "view",
      "type": "function",
      "constant": true
    },
    {
      "inputs": [],
      "name": "name",
      "outputs": [
        {
          "internalType": "string",
          "name": "",
          "type": "string"
        }
      ],
      "stateMutability": "view",
      "type": "function",
      "constant": true
    },
    {
      "inputs": [],
      "name": "symbol",
      "outputs": [
        {
          "internalType": "string",
          "name": "",
          "type": "string"
        }
      ],
      "stateMutability": "view",
      "type": "function",
      "constant": true
    },
    {
      "inputs": [],
      "name": "totalSupply",
      "outputs": [
        {
          "internalType": "uint256",
          "name": "",
          "type": "uint256"
        }
      ],
      "stateMutability": "view",
      "type": "function",
      "constant": true
    },
    {
      "inputs": [
        {
          "internalType": "address",
          "name": "_to",
          "type": "address"
        },
        {
          "internalType": "uint256",
          "name": "_value",
          "type": "uint256"
        }
      ],
      "name": "transfer",
      "outputs": [
        {
          "internalType": "bool",
          "name": "success",
          "type": "bool"
        }
      ],
      "stateMutability": "nonpayable",
      "type": "function"
    },
    {
      "inputs": [
        {
          "internalType": "address",
          "name": "_from",
          "type": "address"
        },
        {
          "internalType": "address",
          "name": "_to",
          "type": "address"
        },
        {
          "internalType": "uint256",
          "name": "_value",
          "type": "uint256"
        }
      ],
      "name": "transferFrom",
      "outputs": [
        {
          "internalType": "bool",
          "name": "success",
          "type": "bool"
        }
      ],
      "stateMutability": "nonpayable",
      "type": "function"
    },
    {
      "stateMutability": "payable",
      "type": "receive",
      "payable": true
    },
    {
      "inputs": [],
      "name": "getTokenLeft",
      "outputs": [
        {
          "internalType": "uint256",
          "name": "",
          "type": "uint256"
        }
      ],
      "stateMutability": "view",
      "type": "function",
      "constant": true
    }
  ],
  "bytecode": "0x60806040523480156200001157600080fd5b5060405162001cda38038062001cda833981810160405281019062000037919062000466565b818181600090805190602001906200005192919062000219565b5080600190805190602001906200006a92919062000219565b5060006003819055506012600260006101000a81548160ff021916908360ff160217905550505033600660006101000a81548173ffffffffffffffffffffffffffffffffffffffff021916908373ffffffffffffffffffffffffffffffffffffffff1602179055506000606490506200011a33620000ed6200012360201b60201c565b60ff16600a620000fe919062000678565b8360ff166200010e9190620006c9565b6200013a60201b60201c565b5050506200081a565b6000600260009054906101000a900460ff16905090565b80600360008282546200014e91906200072a565b9250508190555080600460008473ffffffffffffffffffffffffffffffffffffffff1673ffffffffffffffffffffffffffffffffffffffff1681526020019081526020016000206000828254620001a691906200072a565b925050819055508173ffffffffffffffffffffffffffffffffffffffff16600073ffffffffffffffffffffffffffffffffffffffff167fddf252ad1be2c89b69c2b068fc378daa952ba7f163c4a11628f55a4df523b3ef836040516200020d919062000798565b60405180910390a35050565b8280546200022790620007e4565b90600052602060002090601f0160209004810192826200024b576000855562000297565b82601f106200026657805160ff191683800117855562000297565b8280016001018555821562000297579182015b828111156200029657825182559160200191906001019062000279565b5b509050620002a69190620002aa565b5090565b5b80821115620002c5576000816000905550600101620002ab565b5090565b6000604051905090565b600080fd5b600080fd5b600080fd5b600080fd5b6000601f19601f8301169050919050565b7f4e487b7100000000000000000000000000000000000000000000000000000000600052604160045260246000fd5b6200033282620002e7565b810181811067ffffffffffffffff82111715620003545762000353620002f8565b5b80604052505050565b600062000369620002c9565b905062000377828262000327565b919050565b600067ffffffffffffffff8211156200039a5762000399620002f8565b5b620003a582620002e7565b9050602081019050919050565b60005b83811015620003d2578082015181840152602081019050620003b5565b83811115620003e2576000848401525b50505050565b6000620003ff620003f9846200037c565b6200035d565b9050828152602081018484840111156200041e576200041d620002e2565b5b6200042b848285620003b2565b509392505050565b600082601f8301126200044b576200044a620002dd565b5b81516200045d848260208601620003e8565b91505092915050565b6000806040838503121562000480576200047f620002d3565b5b600083015167ffffffffffffffff811115620004a157620004a0620002d8565b5b620004af8582860162000433565b925050602083015167ffffffffffffffff811115620004d357620004d2620002d8565b5b620004e18582860162000433565b9150509250929050565b7f4e487b7100000000000000000000000000000000000000000000000000000000600052601160045260246000fd5b60008160011c9050919050565b6000808291508390505b60018511156200057957808604811115620005515762000550620004eb565b5b6001851615620005615780820291505b808102905062000571856200051a565b945062000531565b94509492505050565b60008262000594576001905062000667565b81620005a4576000905062000667565b8160018114620005bd5760028114620005c857620005fe565b600191505062000667565b60ff841115620005dd57620005dc620004eb565b5b8360020a915084821115620005f757620005f6620004eb565b5b5062000667565b5060208310610133831016604e8410600b8410161715620006385782820a905083811115620006325762000631620004eb565b5b62000667565b62000647848484600162000527565b92509050818404811115620006615762000660620004eb565b5b81810290505b9392505050565b6000819050919050565b600062000685826200066e565b915062000692836200066e565b9250620006c17fffffffffffffffffffffffffffffffffffffffffffffffffffffffffffffffff848462000582565b905092915050565b6000620006d6826200066e565b9150620006e3836200066e565b9250817fffffffffffffffffffffffffffffffffffffffffffffffffffffffffffffffff04831182151516156200071f576200071e620004eb565b5b828202905092915050565b600062000737826200066e565b915062000744836200066e565b9250827fffffffffffffffffffffffffffffffffffffffffffffffffffffffffffffffff038211156200077c576200077b620004eb565b5b828201905092915050565b62000792816200066e565b82525050565b6000602082019050620007af600083018462000787565b92915050565b7f4e487b7100000000000000000000000000000000000000000000000000000000600052602260045260246000fd5b60006002820490506001821680620007fd57607f821691505b60208210811415620008145762000813620007b5565b5b50919050565b6114b0806200082a6000396000f3fe6080604052600436106100955760003560e01c8063313ce56711610059578063313ce5671461035457806370a082311461037f57806395d89b41146103bc578063a9059cbb146103e7578063dd62ed3e1461042457610254565b806306fdde0314610259578063095ea7b31461028457806318160ddd146102c15780631bc77c56146102ec57806323b872dd1461031757610254565b3661025457655af3107a40003410156100e3576040517f08c379a00000000000000000000000000000000000000000000000000000000081526004016100da90610ba0565b60405180910390fd5b6601c6bf5263400034111561012d576040517f08c379a000000000000000000000000000000000000000000000000000000000815260040161012490610c32565b60405180910390fd5b600061015a600660009054906101000a900473ffffffffffffffffffffffffffffffffffffffff16610461565b1161019a576040517f08c379a000000000000000000000000000000000000000000000000000000000815260040161019190610cc4565b60405180910390fd5b6101e9600660009054906101000a900473ffffffffffffffffffffffffffffffffffffffff16336101c96104aa565b60ff16600a6101d89190610e50565b60016101e49190610e9b565b6104c1565b600660009054906101000a900473ffffffffffffffffffffffffffffffffffffffff1673ffffffffffffffffffffffffffffffffffffffff166108fc349081150290604051600060405180830381858888f19350505050158015610251573d6000803e3d6000fd5b50005b600080fd5b34801561026557600080fd5b5061026e610659565b60405161027b9190610f7d565b60405180910390f35b34801561029057600080fd5b506102ab60048036038101906102a6919061102e565b6106eb565b6040516102b89190611089565b60405180910390f35b3480156102cd57600080fd5b506102d66107dd565b6040516102e391906110b3565b60405180910390f35b3480156102f857600080fd5b506103016107e7565b60405161030e91906110b3565b60405180910390f35b34801561032357600080fd5b5061033e600480360381019061033991906110ce565b61083a565b60405161034b9190611089565b60405180910390f35b34801561036057600080fd5b506103696104aa565b604051610376919061113d565b60405180910390f35b34801561038b57600080fd5b506103a660048036038101906103a19190611158565b610461565b6040516103b391906110b3565b60405180910390f35b3480156103c857600080fd5b506103d16109a4565b6040516103de9190610f7d565b60405180910390f35b3480156103f357600080fd5b5061040e6004803603810190610409919061102e565b610a36565b60405161041b9190611089565b60405180910390f35b34801561043057600080fd5b5061044b60048036038101906104469190611185565b610abc565b60405161045891906110b3565b60405180910390f35b6000600460008373ffffffffffffffffffffffffffffffffffffffff1673ffffffffffffffffffffffffffffffffffffffff168152602001908152602001600020549050919050565b6000600260009054906101000a900460ff16905090565b80600460008573ffffffffffffffffffffffffffffffffffffffff1673ffffffffffffffffffffffffffffffffffffffff168152602001908152602001600020541015610543576040517f08c379a000000000000000000000000000000000000000000000000000000000815260040161053a90611237565b60405180910390fd5b80600460008573ffffffffffffffffffffffffffffffffffffffff1673ffffffffffffffffffffffffffffffffffffffff16815260200190815260200160002060008282546105929190611257565b9250508190555080600460008473ffffffffffffffffffffffffffffffffffffffff1673ffffffffffffffffffffffffffffffffffffffff16815260200190815260200160002060008282546105e8919061128b565b925050819055508173ffffffffffffffffffffffffffffffffffffffff168373ffffffffffffffffffffffffffffffffffffffff167fddf252ad1be2c89b69c2b068fc378daa952ba7f163c4a11628f55a4df523b3ef8360405161064c91906110b3565b60405180910390a3505050565b60606000805461066890611310565b80601f016020809104026020016040519081016040528092919081815260200182805461069490611310565b80156106e15780601f106106b6576101008083540402835291602001916106e1565b820191906000526020600020905b8154815290600101906020018083116106c457829003601f168201915b5050505050905090565b600081600560003373ffffffffffffffffffffffffffffffffffffffff1673ffffffffffffffffffffffffffffffffffffffff16815260200190815260200160002060008573ffffffffffffffffffffffffffffffffffffffff1673ffffffffffffffffffffffffffffffffffffffff168152602001908152602001600020819055508273ffffffffffffffffffffffffffffffffffffffff163373ffffffffffffffffffffffffffffffffffffffff167f8c5be1e5ebec7d5bd14f71427d1e84f3dd0314c0f7b2291e5b200ac8c7c3b925846040516107cb91906110b3565b60405180910390a36001905092915050565b6000600354905090565b60006107f16104aa565b60ff16600a6108009190610e50565b61082b600660009054906101000a900473ffffffffffffffffffffffffffffffffffffffff16610461565b6108359190611371565b905090565b600081600560008673ffffffffffffffffffffffffffffffffffffffff1673ffffffffffffffffffffffffffffffffffffffff16815260200190815260200160002060003373ffffffffffffffffffffffffffffffffffffffff1673ffffffffffffffffffffffffffffffffffffffff1681526020019081526020016000205410156108fb576040517f08c379a00000000000000000000000000000000000000000000000000000000081526004016108f2906113ee565b60405180910390fd5b81600560008673ffffffffffffffffffffffffffffffffffffffff1673ffffffffffffffffffffffffffffffffffffffff16815260200190815260200160002060003373ffffffffffffffffffffffffffffffffffffffff1673ffffffffffffffffffffffffffffffffffffffff16815260200190815260200160002060008282546109879190611257565b925050819055506109998484846104c1565b600190509392505050565b6060600180546109b390611310565b80601f01602080910402602001604051908101604052809291908181526020018280546109df90611310565b8015610a2c5780601f10610a0157610100808354040283529160200191610a2c565b820191906000526020600020905b815481529060010190602001808311610a0f57829003601f168201915b5050505050905090565b60008073ffffffffffffffffffffffffffffffffffffffff163373ffffffffffffffffffffffffffffffffffffffff161415610aa7576040517f08c379a0000000000000000000000000000000000000000000000000000000008152600401610a9e9061145a565b60405180910390fd5b610ab23384846104c1565b6001905092915050565b6000600560008473ffffffffffffffffffffffffffffffffffffffff1673ffffffffffffffffffffffffffffffffffffffff16815260200190815260200160002060008373ffffffffffffffffffffffffffffffffffffffff1673ffffffffffffffffffffffffffffffffffffffff16815260200190815260200160002054905092915050565b600082825260208201905092915050565b7f526f6e616c646f436f696e2773207072696365206973206e6f74206d65740000600082015250565b6000610b8a601e83610b43565b9150610b9582610b54565b602082019050919050565b60006020820190508181036000830152610bb981610b7d565b9050919050565b7f4e6f206e65656420746f207061792074686174206d756368212120646f6e617460008201527f6520746f206368617269747920696e73746561642e0000000000000000000000602082015250565b6000610c1c603583610b43565b9150610c2782610bc0565b604082019050919050565b60006020820190508181036000830152610c4b81610c0f565b9050919050565b7f416c6c20313020526f6e616c646f436f696e20617265206d696e7465642e205960008201527f6f75277265206c6174652e000000000000000000000000000000000000000000602082015250565b6000610cae602b83610b43565b9150610cb982610c52565b604082019050919050565b60006020820190508181036000830152610cdd81610ca1565b9050919050565b7f4e487b7100000000000000000000000000000000000000000000000000000000600052601160045260246000fd5b60008160011c9050919050565b6000808291508390505b6001851115610d6a57808604811115610d4657610d45610ce4565b5b6001851615610d555780820291505b8081029050610d6385610d13565b9450610d2a565b94509492505050565b600082610d835760019050610e3f565b81610d915760009050610e3f565b8160018114610da75760028114610db157610de0565b6001915050610e3f565b60ff841115610dc357610dc2610ce4565b5b8360020a915084821115610dda57610dd9610ce4565b5b50610e3f565b5060208310610133831016604e8410600b8410161715610e155782820a905083811115610e1057610e0f610ce4565b5b610e3f565b610e228484846001610d20565b92509050818404811115610e3957610e38610ce4565b5b81810290505b9392505050565b6000819050919050565b6000610e5b82610e46565b9150610e6683610e46565b9250610e937fffffffffffffffffffffffffffffffffffffffffffffffffffffffffffffffff8484610d73565b905092915050565b6000610ea682610e46565b9150610eb183610e46565b9250817fffffffffffffffffffffffffffffffffffffffffffffffffffffffffffffffff0483118215151615610eea57610ee9610ce4565b5b828202905092915050565b600081519050919050565b60005b83811015610f1e578082015181840152602081019050610f03565b83811115610f2d576000848401525b50505050565b6000601f19601f8301169050919050565b6000610f4f82610ef5565b610f598185610b43565b9350610f69818560208601610f00565b610f7281610f33565b840191505092915050565b60006020820190508181036000830152610f978184610f44565b905092915050565b600080fd5b600073ffffffffffffffffffffffffffffffffffffffff82169050919050565b6000610fcf82610fa4565b9050919050565b610fdf81610fc4565b8114610fea57600080fd5b50565b600081359050610ffc81610fd6565b92915050565b61100b81610e46565b811461101657600080fd5b50565b60008135905061102881611002565b92915050565b6000806040838503121561104557611044610f9f565b5b600061105385828601610fed565b925050602061106485828601611019565b9150509250929050565b60008115159050919050565b6110838161106e565b82525050565b600060208201905061109e600083018461107a565b92915050565b6110ad81610e46565b82525050565b60006020820190506110c860008301846110a4565b92915050565b6000806000606084860312156110e7576110e6610f9f565b5b60006110f586828701610fed565b935050602061110686828701610fed565b925050604061111786828701611019565b9150509250925092565b600060ff82169050919050565b61113781611121565b82525050565b6000602082019050611152600083018461112e565b92915050565b60006020828403121561116e5761116d610f9f565b5b600061117c84828501610fed565b91505092915050565b6000806040838503121561119c5761119b610f9f565b5b60006111aa85828601610fed565b92505060206111bb85828601610fed565b9150509250929050565b7f73656e64657220646f6e27742068617665206164657175617465207265736f7560008201527f7263657320746f207472616e7366657200000000000000000000000000000000602082015250565b6000611221603083610b43565b915061122c826111c5565b604082019050919050565b6000602082019050818103600083015261125081611214565b9050919050565b600061126282610e46565b915061126d83610e46565b9250828210156112805761127f610ce4565b5b828203905092915050565b600061129682610e46565b91506112a183610e46565b9250827fffffffffffffffffffffffffffffffffffffffffffffffffffffffffffffffff038211156112d6576112d5610ce4565b5b828201905092915050565b7f4e487b7100000000000000000000000000000000000000000000000000000000600052602260045260246000fd5b6000600282049050600182168061132857607f821691505b6020821081141561133c5761133b6112e1565b5b50919050565b7f4e487b7100000000000000000000000000000000000000000000000000000000600052601260045260246000fd5b600061137c82610e46565b915061138783610e46565b92508261139757611396611342565b5b828204905092915050565b7f6e6f7420656e6f75676820616c6c6f77616e6365000000000000000000000000600082015250565b60006113d8601483610b43565b91506113e3826113a2565b602082019050919050565b60006020820190508181036000830152611407816113cb565b9050919050565b7f7a65726f20616464726573732063616e277420626520612073656e6465720000600082015250565b6000611444601e83610b43565b915061144f8261140e565b602082019050919050565b6000602082019050818103600083015261147381611437565b905091905056fea26469706673582212208fd5cca0fe4e7cf74fbd6c2901ca485052ba85e52e20a1e7bcce07c42d1c85da64736f6c634300080c0033",
  "immutableReferences": {},
  "source": "// SPDX-License-Identifier: MIT\npragma solidity ^0.8.12;\n\n/*\nContract for the RonaldoCoin Token\n*/\n\nimport \"./ERC20.sol\";\n\ncontract RonaldoCoinCapped is ERC20 {\n    address tokenOwner;\n\n    constructor(string memory tokenName, string memory tokenSymbol)\n        ERC20(tokenName, tokenSymbol)\n    {\n        tokenOwner = msg.sender;\n        uint8 tokenMinted = 100; // I want to keep the cap to 10. Change it if you want to mint more\n        mintToken(msg.sender, tokenMinted * 10**uint256(decimals()));\n    }\n\n    // get the total token left \n    function getTokenLeft() public view returns (uint256) {\n        return balanceOf(tokenOwner) / 10**uint256(decimals());\n    }\n\n    // this method recieve ether by default when someone sends it.\n    // so it should a fallback function, or it should have a name of receive() with external payable modifiere and without function keyword\n    receive() external payable {\n        require(\n            msg.value >= 0.0001 ether, // price of 1 RonaldoCoin in wei\n            \"RonaldoCoin's price is not met\"\n        );\n        require(\n            msg.value <= 0.0005 ether, // price of 1 RonaldoCoin in wei\n            \"No need to pay that much!! donate to charity instead.\"\n        );\n        require(\n            balanceOf(tokenOwner) > 0,\n            \"All 10 RonaldoCoin are minted. You're late.\"\n        );\n        // require(\n        //     balanceOf(msg.sender) == 0,\n        //     \"You can own at max 1 RonaldoCoin, not more. Don't be greedy\"\n        // );\n\n        makeTransfer(tokenOwner, msg.sender, 1 * 10**uint256(decimals()));\n        // we'll send 1 coin, thich is represented by n * 10**uint256(decimals()) internally. n=1\n\n        // send the ether earned to the token owner\n        payable(tokenOwner).transfer(msg.value);\n    }\n}\n",
  "compiler": {
    "name": "solc",
    "version": "0.8.12+commit.f00d7308.Emscripten.clang"
  },
  "schemaVersion": "3.4.8",
  "updatedAt": "2022-08-04T07:42:40.456Z",
  "networkType": "ethereum",
  "devdoc": {
    "kind": "dev",
    "methods": {},
    "version": 1
  },
  "userdoc": {
    "kind": "user",
    "methods": {},
    "version": 1
  }
}